{
   "call_trace":[
      {
         "contract_name":"MetaSwap",
         "function":"swap",
         "from":"0xbd1b84f69b92d4e31dfbdb7f6b77075a39b6ee6b",
         "from_balance":"19383920705779583",
         "to":"0x881d40237659c251811cec9c364ef91dc08d300c",
         "input":"0x5f575529000000000000000000000000000000000000000000000000000000000000008000000000000000000000000068bbed6a47194eff1cf514b50ea91895597fc91e00000000000000000000000000000000000000000001a784379d99db4200000000000000000000000000000000000000000000000000000000000000000000c000000000000000000000000000000000000000000000000000000000000000136f6e65496e6368563546656544796e616d696300000000000000000000000000000000000000000000000000000000000000000000000000000000000000020000000000000000000000000068bbed6a47194eff1cf514b50ea91895597fc91e000000000000000000000000000000000000000000000000000000000000000000000000000000000000000000000000000000000001a784379d99db4200000000000000000000000000000000000000000000000000000001137777f4817c29000000000000000000000000000000000000000000000000000000000000012000000000000000000000000000000000000000000000000000027b32322a3610000000000000000000000000f326e4de8f66a0bdc0970b79e0924e33c79f1915000000000000000000000000000000000000000000000000000000000000000100000000000000000000000000000000000000000000000000000000000000c80502b1c500000000000000000000000068bbed6a47194eff1cf514b50ea91895597fc91e00000000000000000000000000000000000000000001a784379d99db420000000000000000000000000000000000000000000000000000000115e5f5f277a6e60000000000000000000000000000000000000000000000000000000000000080000000000000000000000000000000000000000000000000000000000000000140000000000000003b6d0340a1bf0e900fb272089c9fd299ea14bfccb1d1c2c07dcbea7c00000000000000000000000000000000000000000000000000a4",
         "output":"0x",
         "value":"0",
         "caller":"0xbd1b84f69b92d4e31dfbdb7f6b77075a39b6ee6b",
         "caller_balance":"19383920705779583",
         "decoded_input":[
            {
               "name":"aggregatorId",
               "type":"string",
               "value":"oneInchV5FeeDynamic"
            },
            {
               "name":"tokenFrom",
               "type":"address",
               "value":"0x68bbed6a47194eff1cf514b50ea91895597fc91e"
            },
            {
               "name":"amount",
               "type":"uint256",
               "value":"2000000000000000000000000"
            },
            {
               "name":"data",
               "type":"bytes",
               "value":"0x00000000000000000000000068bbed6a47194eff1cf514b50ea91895597fc91e000000000000000000000000000000000000000000000000000000000000000000000000000000000000000000000000000000000001a784379d99db4200000000000000000000000000000000000000000000000000000001137777f4817c29000000000000000000000000000000000000000000000000000000000000012000000000000000000000000000000000000000000000000000027b32322a3610000000000000000000000000f326e4de8f66a0bdc0970b79e0924e33c79f1915000000000000000000000000000000000000000000000000000000000000000100000000000000000000000000000000000000000000000000000000000000c80502b1c500000000000000000000000068bbed6a47194eff1cf514b50ea91895597fc91e00000000000000000000000000000000000000000001a784379d99db420000000000000000000000000000000000000000000000000000000115e5f5f277a6e60000000000000000000000000000000000000000000000000000000000000080000000000000000000000000000000000000000000000000000000000000000140000000000000003b6d0340a1bf0e900fb272089c9fd299ea14bfccb1d1c2c07dcbea7c000000000000000000000000000000000000000000000000"
            }
         ],
         "calls":[
            {
               "contract_name":"MetaSwap",
               "function":"_swap",
               "from":"0x881d40237659c251811cec9c364ef91dc08d300c",
               "from_balance":null,
               "to":"0x881d40237659c251811cec9c364ef91dc08d300c",
               "input":"0x",
               "output":"0x",
               "value":null,
               "caller":"0xbd1b84f69b92d4e31dfbdb7f6b77075a39b6ee6b",
               "caller_balance":"19383920705779583",
               "decoded_input":[
                  {
                     "name":"aggregatorId",
                     "type":"string",
                     "value":"oneInchV5FeeDynamic"
                  },
                  {
                     "name":"tokenFrom",
                     "type":"address",
                     "value":"0x0000000000000000000000000000000000000013"
                  },
                  {
                     "name":"amount",
                     "type":"uint256",
                     "value":"597925961294007855207931308112498409696395249950"
                  },
                  {
                     "name":"data",
                     "type":"bytes",
                     "value":null
                  }
               ],
               "calls":[
                  {
                     "contract_name":"MetaSwap",
                     "function":"safeTransferFrom",
                     "from":"0x881d40237659c251811cec9c364ef91dc08d300c",
                     "from_balance":null,
                     "to":"0x881d40237659c251811cec9c364ef91dc08d300c",
                     "input":"0x",
                     "output":"0x",
                     "value":null,
                     "caller":"0xbd1b84f69b92d4e31dfbdb7f6b77075a39b6ee6b",
                     "caller_balance":"19383920705779583",
                     "decoded_input":[
                        {
                           "name":"token",
                           "type":"address",
                           "value":"0x68bbed6a47194eff1cf514b50ea91895597fc91e"
                        },
                        {
                           "name":"from",
                           "type":"address",
                           "value":"0xbd1b84f69b92d4e31dfbdb7f6b77075a39b6ee6b"
                        },
                        {
                           "name":"to",
                           "type":"address",
                           "value":"0x74de5d4fcbf63e00296fd95d33236b9794016631"
                        },
                        {
                           "name":"value",
                           "type":"uint256",
                           "value":"2000000000000000000000000"
                        }
                     ],
                     "calls":[
                        {
                           "contract_name":"MetaSwap",
                           "function":"_callOptionalReturn",
                           "from":"0x881d40237659c251811cec9c364ef91dc08d300c",
                           "from_balance":null,
                           "to":"0x881d40237659c251811cec9c364ef91dc08d300c",
                           "input":"0x",
                           "output":"0x",
                           "value":null,
                           "caller":"0xbd1b84f69b92d4e31dfbdb7f6b77075a39b6ee6b",
                           "caller_balance":"19383920705779583",
                           "decoded_input":[
                              {
                                 "name":"token",
                                 "type":"address",
                                 "value":"0x68bbed6a47194eff1cf514b50ea91895597fc91e"
                              },
                              {
                                 "name":"data",
                                 "type":"bytes",
                                 "value":"0x23b872dd000000000000000000000000bd1b84f69b92d4e31dfbdb7f6b77075a39b6ee6b00000000000000000000000074de5d4fcbf63e00296fd95d33236b979401663100000000000000000000000000000000000000000001a784379d99db42000000"
                              }
                           ],
                           "calls":[
                              {
                                 "contract_name":"MetaSwap",
                                 "function":"functionCall",
                                 "from":"0x881d40237659c251811cec9c364ef91dc08d300c",
                                 "from_balance":null,
                                 "to":"0x881d40237659c251811cec9c364ef91dc08d300c",
                                 "input":"0x",
                                 "output":"0x",
                                 "value":null,
                                 "caller":"0xbd1b84f69b92d4e31dfbdb7f6b77075a39b6ee6b",
                                 "caller_balance":"19383920705779583",
                                 "decoded_input":[
                                    {
                                       "name":"target",
                                       "type":"address",
                                       "value":"0x68bbed6a47194eff1cf514b50ea91895597fc91e"
                                    },
                                    {
                                       "name":"data",
                                       "type":"bytes",
                                       "value":"0x23b872dd000000000000000000000000bd1b84f69b92d4e31dfbdb7f6b77075a39b6ee6b00000000000000000000000074de5d4fcbf63e00296fd95d33236b979401663100000000000000000000000000000000000000000001a784379d99db42000000"
                                    },
                                    {
                                       "name":"errorMessage",
                                       "type":"string",
                                       "value":"SafeERC20: low-level call failed"
                                    }
                                 ],
                                 "decoded_output":[
                                    {
                                       "name":"",
                                       "type":"bytes",
                                       "value":"0x0000000000000000000000000000000000000000000000000000000000000001"
                                    }
                                 ],
                                 "calls":[
                                    {
                                       "contract_name":"MetaSwap",
                                       "function":"_functionCallWithValue",
                                       "from":"0x881d40237659c251811cec9c364ef91dc08d300c",
                                       "from_balance":null,
                                       "to":"0x881d40237659c251811cec9c364ef91dc08d300c",
                                       "input":"0x",
                                       "output":"0x",
                                       "value":null,
                                       "caller":"0xbd1b84f69b92d4e31dfbdb7f6b77075a39b6ee6b",
                                       "caller_balance":"19383920705779583",
                                       "decoded_input":[
                                          {
                                             "name":"target",
                                             "type":"address",
                                             "value":"0x68bbed6a47194eff1cf514b50ea91895597fc91e"
                                          },
                                          {
                                             "name":"data",
                                             "type":"bytes",
                                             "value":"0x23b872dd000000000000000000000000bd1b84f69b92d4e31dfbdb7f6b77075a39b6ee6b00000000000000000000000074de5d4fcbf63e00296fd95d33236b979401663100000000000000000000000000000000000000000001a784379d99db42000000"
                                          },
                                          {
                                             "name":"weiValue",
                                             "type":"uint256",
                                             "value":"0"
                                          },
                                          {
                                             "name":"errorMessage",
                                             "type":"string",
                                             "value":"SafeERC20: low-level call failed"
                                          }
                                       ],
                                       "decoded_output":[
                                          {
                                             "name":"",
                                             "type":"bytes",
                                             "value":"0x0000000000000000000000000000000000000000000000000000000000000001"
                                          }
                                       ],
                                       "calls":[
                                          {
                                             "contract_name":"MetaSwap",
                                             "function":"isContract",
                                             "from":"0x881d40237659c251811cec9c364ef91dc08d300c",
                                             "from_balance":null,
                                             "to":"0x881d40237659c251811cec9c364ef91dc08d300c",
                                             "input":"0x",
                                             "output":"0x",
                                             "value":null,
                                             "caller":"0xbd1b84f69b92d4e31dfbdb7f6b77075a39b6ee6b",
                                             "caller_balance":"19383920705779583",
                                             "decoded_input":[
                                                {
                                                   "name":"account",
                                                   "type":"address",
                                                   "value":"0x68bbed6a47194eff1cf514b50ea91895597fc91e"
                                                }
                                             ],
                                             "decoded_output":[
                                                {
                                                   "name":"",
                                                   "type":"bool",
                                                   "value":true
                                                }
                                             ]
                                          },
                                          {
                                             "contract_name":"MetaSwap",
                                             "function":"transferFrom",
                                             "from":"0x881d40237659c251811cec9c364ef91dc08d300c",
                                             "from_balance":"0",
                                             "to":"0x68bbed6a47194eff1cf514b50ea91895597fc91e",
                                             "input":"0x23b872dd000000000000000000000000bd1b84f69b92d4e31dfbdb7f6b77075a39b6ee6b00000000000000000000000074de5d4fcbf63e00296fd95d33236b979401663100000000000000000000000000000000000000000001a784379d99db42000000",
                                             "output":"0x0000000000000000000000000000000000000000000000000000000000000001",
                                             "value":"0",
                                             "caller":"0x881d40237659c251811cec9c364ef91dc08d300c",
                                             "caller_balance":"0",
                                             "decoded_input":[
                                                {
                                                   "name":"sender",
                                                   "type":"address",
                                                   "value":"0xbd1b84f69b92d4e31dfbdb7f6b77075a39b6ee6b"
                                                },
                                                {
                                                   "name":"recipient",
                                                   "type":"address",
                                                   "value":"0x74de5d4fcbf63e00296fd95d33236b9794016631"
                                                },
                                                {
                                                   "name":"amount",
                                                   "type":"uint256",
                                                   "value":"2000000000000000000000000"
                                                }
                                             ],
                                             "decoded_output":[
                                                {
                                                   "name":"",
                                                   "type":"bool",
                                                   "value":true
                                                }
                                             ],
                                             "calls":[
                                                {
                                                   "contract_name":"Andy",
                                                   "function":"_transfer",
                                                   "from":"0x68bbed6a47194eff1cf514b50ea91895597fc91e",
                                                   "from_balance":null,
                                                   "to":"0x68bbed6a47194eff1cf514b50ea91895597fc91e",
                                                   "input":"0x",
                                                   "output":"0x",
                                                   "value":null,
                                                   "caller":"0x881d40237659c251811cec9c364ef91dc08d300c",
                                                   "caller_balance":"0",
                                                   "decoded_input":[
                                                      {
                                                         "name":"from",
                                                         "type":"address",
                                                         "value":"0xbd1b84f69b92d4e31dfbdb7f6b77075a39b6ee6b"
                                                      },
                                                      {
                                                         "name":"to",
                                                         "type":"address",
                                                         "value":"0x74de5d4fcbf63e00296fd95d33236b9794016631"
                                                      },
                                                      {
                                                         "name":"amount",
                                                         "type":"uint256",
                                                         "value":"2000000000000000000000000"
                                                      }
                                                   ]
                                                },
                                                {
                                                   "contract_name":"Andy",
                                                   "function":"_approve",
                                                   "from":"0x68bbed6a47194eff1cf514b50ea91895597fc91e",
                                                   "from_balance":null,
                                                   "to":"0x68bbed6a47194eff1cf514b50ea91895597fc91e",
                                                   "input":"0x",
                                                   "output":"0x",
                                                   "value":null,
                                                   "caller":"0x881d40237659c251811cec9c364ef91dc08d300c",
                                                   "caller_balance":"0",
                                                   "decoded_input":[
                                                      {
                                                         "name":"owner",
                                                         "type":"address",
                                                         "value":"0xbd1b84f69b92d4e31dfbdb7f6b77075a39b6ee6b"
                                                      },
                                                      {
                                                         "name":"spender",
                                                         "type":"address",
                                                         "value":"0x881d40237659c251811cec9c364ef91dc08d300c"
                                                      },
                                                      {
                                                         "name":"amount",
                                                         "type":"uint256",
                                                         "value":"115792089237316195423570985008687907853269984665640528039457584007913129639935"
                                                      }
                                                   ]
                                                }
                                             ]
                                          }
                                       ]
                                    }
                                 ]
                              }
                           ]
                        }
                     ]
                  },
                  {
                     "contract_name":"MetaSwap",
                     "function":"",
                     "from":"0x881d40237659c251811cec9c364ef91dc08d300c",
                     "from_balance":"0",
                     "to":"0x74de5d4fcbf63e00296fd95d33236b9794016631",
                     "input":"0xe35473350000000000000000000000007cdf68ce9a05413cbb76cb7f80eaf415a826e3130000000000000000000000000000000000000000000000000000000000000040000000000000000000000000000000000000000000000000000000000000022492f5f037000000000000000000000000bd1b84f69b92d4e31dfbdb7f6b77075a39b6ee6b00000000000000000000000068bbed6a47194eff1cf514b50ea91895597fc91e000000000000000000000000000000000000000000000000000000000000000000000000000000000000000000000000000000000001a784379d99db4200000000000000000000000000000000000000000000000000000001137777f4817c29000000000000000000000000000000000000000000000000000000000000012000000000000000000000000000000000000000000000000000027b32322a3610000000000000000000000000f326e4de8f66a0bdc0970b79e0924e33c79f1915000000000000000000000000000000000000000000000000000000000000000100000000000000000000000000000000000000000000000000000000000000c80502b1c500000000000000000000000068bbed6a47194eff1cf514b50ea91895597fc91e00000000000000000000000000000000000000000001a784379d99db420000000000000000000000000000000000000000000000000000000115e5f5f277a6e60000000000000000000000000000000000000000000000000000000000000080000000000000000000000000000000000000000000000000000000000000000140000000000000003b6d0340a1bf0e900fb272089c9fd299ea14bfccb1d1c2c07dcbea7c00000000000000000000000000000000000000000000000000000000000000000000000000000000000000000000000000000000",
                     "output":"0x",
                     "value":"0",
                     "decoded_input":[
                        {
                           "name":"adapter",
                           "type":"address",
                           "value":"0x7cdf68ce9a05413cbb76cb7f80eaf415a826e313"
                        },
                        {
                           "name":"data",
                           "type":"bytes",
                           "value":"0x92f5f037000000000000000000000000bd1b84f69b92d4e31dfbdb7f6b77075a39b6ee6b00000000000000000000000068bbed6a47194eff1cf514b50ea91895597fc91e000000000000000000000000000000000000000000000000000000000000000000000000000000000000000000000000000000000001a784379d99db4200000000000000000000000000000000000000000000000000000001137777f4817c29000000000000000000000000000000000000000000000000000000000000012000000000000000000000000000000000000000000000000000027b32322a3610000000000000000000000000f326e4de8f66a0bdc0970b79e0924e33c79f1915000000000000000000000000000000000000000000000000000000000000000100000000000000000000000000000000000000000000000000000000000000c80502b1c500000000000000000000000068bbed6a47194eff1cf514b50ea91895597fc91e00000000000000000000000000000000000000000001a784379d99db420000000000000000000000000000000000000000000000000000000115e5f5f277a6e60000000000000000000000000000000000000000000000000000000000000080000000000000000000000000000000000000000000000000000000000000000140000000000000003b6d0340a1bf0e900fb272089c9fd299ea14bfccb1d1c2c07dcbea7c000000000000000000000000000000000000000000000000"
                        }
                     ],
                     "calls":[
                        {
                           "contract_name":"",
                           "function":"",
                           "from":"0x74de5d4fcbf63e00296fd95d33236b9794016631",
                           "from_balance":"0",
                           "to":"0x7cdf68ce9a05413cbb76cb7f80eaf415a826e313",
                           "input":"0x92f5f037000000000000000000000000bd1b84f69b92d4e31dfbdb7f6b77075a39b6ee6b00000000000000000000000068bbed6a47194eff1cf514b50ea91895597fc91e000000000000000000000000000000000000000000000000000000000000000000000000000000000000000000000000000000000001a784379d99db4200000000000000000000000000000000000000000000000000000001137777f4817c29000000000000000000000000000000000000000000000000000000000000012000000000000000000000000000000000000000000000000000027b32322a3610000000000000000000000000f326e4de8f66a0bdc0970b79e0924e33c79f1915000000000000000000000000000000000000000000000000000000000000000100000000000000000000000000000000000000000000000000000000000000c80502b1c500000000000000000000000068bbed6a47194eff1cf514b50ea91895597fc91e00000000000000000000000000000000000000000001a784379d99db420000000000000000000000000000000000000000000000000000000115e5f5f277a6e60000000000000000000000000000000000000000000000000000000000000080000000000000000000000000000000000000000000000000000000000000000140000000000000003b6d0340a1bf0e900fb272089c9fd299ea14bfccb1d1c2c07dcbea7c000000000000000000000000000000000000000000000000",
                           "output":"0x",
                           "value":null,
                           "caller":"0x881d40237659c251811cec9c364ef91dc08d300c",
                           "caller_balance":"0",
                           "calls":[
                              {
                                 "contract_name":"",
                                 "function":"allowance",
                                 "from":"0x74de5d4fcbf63e00296fd95d33236b9794016631",
                                 "from_balance":"0",
                                 "to":"0x68bbed6a47194eff1cf514b50ea91895597fc91e",
                                 "input":"0xdd62ed3e00000000000000000000000074de5d4fcbf63e00296fd95d33236b97940166310000000000000000000000001111111254eeb25477b68fb85ed929f73a960582",
                                 "output":"0xfffffffffffffffffffffffffffffffffffffffeac74bd66fd307c76f909cc05",
                                 "value":null,
                                 "caller":"0x74de5d4fcbf63e00296fd95d33236b9794016631",
                                 "caller_balance":"0",
                                 "decoded_input":[
                                    {
                                       "name":"owner",
                                       "type":"address",
                                       "value":"0x74de5d4fcbf63e00296fd95d33236b9794016631"
                                    },
                                    {
                                       "name":"spender",
                                       "type":"address",
                                       "value":"0x1111111254eeb25477b68fb85ed929f73a960582"
                                    }
                                 ],
                                 "decoded_output":[
                                    {
                                       "name":"",
                                       "type":"uint256",
                                       "value":"115792089237316195423570985008687907853269984665535480265940479358353193683973"
                                    }
                                 ]
                              },
                              {
                                 "contract_name":"",
                                 "function":"unoswap",
                                 "from":"0x74de5d4fcbf63e00296fd95d33236b9794016631",
                                 "from_balance":"0",
                                 "to":"0x1111111254eeb25477b68fb85ed929f73a960582",
                                 "input":"0x0502b1c500000000000000000000000068bbed6a47194eff1cf514b50ea91895597fc91e00000000000000000000000000000000000000000001a784379d99db420000000000000000000000000000000000000000000000000000000115e5f5f277a6e60000000000000000000000000000000000000000000000000000000000000080000000000000000000000000000000000000000000000000000000000000000140000000000000003b6d0340a1bf0e900fb272089c9fd299ea14bfccb1d1c2c07dcbea7c",
                                 "output":"0x000000000000000000000000000000000000000000000000011b91d66521470b",
                                 "value":"0",
                                 "caller":"0x74de5d4fcbf63e00296fd95d33236b9794016631",
                                 "caller_balance":"0",
                                 "decoded_input":[
                                    {
                                       "name":"srcToken",
                                       "type":"address",
                                       "value":"0x68bbed6a47194eff1cf514b50ea91895597fc91e"
                                    },
                                    {
                                       "name":"amount",
                                       "type":"uint256",
                                       "value":"2000000000000000000000000"
                                    },
                                    {
                                       "name":"minReturn",
                                       "type":"uint256",
                                       "value":"78221413046527718"
                                    },
                                    {
                                       "name":"pools",
                                       "type":"uint256[]",
                                       "value":[
                                          "28948022309329048857349863385514295397795656299963022387527055642874369655488"
                                       ]
                                    }
                                 ],
                                 "decoded_output":[
                                    {
                                       "name":"returnAmount",
                                       "type":"uint256",
                                       "value":"79817768414824203"
                                    }
                                 ],
                                 "calls":[
                                    {
                                       "contract_name":"AggregationRouterV5",
                                       "function":"_unoswap",
                                       "from":"0x1111111254eeb25477b68fb85ed929f73a960582",
                                       "from_balance":null,
                                       "to":"0x1111111254eeb25477b68fb85ed929f73a960582",
                                       "input":"0x",
                                       "output":"0x",
                                       "value":null,
                                       "caller":"0x74de5d4fcbf63e00296fd95d33236b9794016631",
                                       "caller_balance":"0",
                                       "decoded_input":[
                                          {
                                             "name":"recipient",
                                             "type":"address payable",
                                             "value":"0x68bbed6a47194eff1cf514b50ea91895597fc91e"
                                          },
                                          {
                                             "name":"srcToken",
                                             "type":"address",
                                             "value":"0x00000000000000000001a784379d99db42000000"
                                          },
                                          {
                                             "name":"amount",
                                             "type":"uint256",
                                             "value":"78221413046527718"
                                          },
                                          {
                                             "name":"minReturn",
                                             "type":"uint256",
                                             "value":"164"
                                          },
                                          {
                                             "name":"pools",
                                             "type":"uint256[]",
                                             "value":null
                                          }
                                       ],
                                       "decoded_output":[
                                          {
                                             "name":"returnAmount",
                                             "type":"uint256",
                                             "value":"79817768414824203"
                                          }
                                       ],
                                       "calls":[
                                          {
                                             "contract_name":"AggregationRouterV5",
                                             "function":"transferFrom",
                                             "from":"0x1111111254eeb25477b68fb85ed929f73a960582",
                                             "from_balance":"1",
                                             "to":"0x68bbed6a47194eff1cf514b50ea91895597fc91e",
                                             "input":"0x23b872dd00000000000000000000000074de5d4fcbf63e00296fd95d33236b9794016631000000000000000000000000a1bf0e900fb272089c9fd299ea14bfccb1d1c2c000000000000000000000000000000000000000000001a784379d99db42000000",
                                             "output":"0x0000000000000000000000000000000000000000000000000000000000000001",
                                             "value":"0",
                                             "caller":"0x1111111254eeb25477b68fb85ed929f73a960582",
                                             "caller_balance":"1",
                                             "decoded_input":[
                                                {
                                                   "name":"sender",
                                                   "type":"address",
                                                   "value":"0x74de5d4fcbf63e00296fd95d33236b9794016631"
                                                },
                                                {
                                                   "name":"recipient",
                                                   "type":"address",
                                                   "value":"0xa1bf0e900fb272089c9fd299ea14bfccb1d1c2c0"
                                                },
                                                {
                                                   "name":"amount",
                                                   "type":"uint256",
                                                   "value":"2000000000000000000000000"
                                                }
                                             ],
                                             "decoded_output":[
                                                {
                                                   "name":"",
                                                   "type":"bool",
                                                   "value":true
                                                }
                                             ],
                                             "calls":[
                                                {
                                                   "contract_name":"Andy",
                                                   "function":"_transfer",
                                                   "from":"0x68bbed6a47194eff1cf514b50ea91895597fc91e",
                                                   "from_balance":null,
                                                   "to":"0x68bbed6a47194eff1cf514b50ea91895597fc91e",
                                                   "input":"0x",
                                                   "output":"0x",
                                                   "value":null,
                                                   "caller":"0x1111111254eeb25477b68fb85ed929f73a960582",
                                                   "caller_balance":"1",
                                                   "decoded_input":[
                                                      {
                                                         "name":"from",
                                                         "type":"address",
                                                         "value":"0x74de5d4fcbf63e00296fd95d33236b9794016631"
                                                      },
                                                      {
                                                         "name":"to",
                                                         "type":"address",
                                                         "value":"0xa1bf0e900fb272089c9fd299ea14bfccb1d1c2c0"
                                                      },
                                                      {
                                                         "name":"amount",
                                                         "type":"uint256",
                                                         "value":"2000000000000000000000000"
                                                      }
                                                   ]
                                                },
                                                {
                                                   "contract_name":"Andy",
                                                   "function":"_approve",
                                                   "from":"0x68bbed6a47194eff1cf514b50ea91895597fc91e",
                                                   "from_balance":null,
                                                   "to":"0x68bbed6a47194eff1cf514b50ea91895597fc91e",
                                                   "input":"0x",
                                                   "output":"0x",
                                                   "value":null,
                                                   "caller":"0x1111111254eeb25477b68fb85ed929f73a960582",
                                                   "caller_balance":"1",
                                                   "decoded_input":[
                                                      {
                                                         "name":"owner",
                                                         "type":"address",
                                                         "value":"0x74de5d4fcbf63e00296fd95d33236b9794016631"
                                                      },
                                                      {
                                                         "name":"spender",
                                                         "type":"address",
                                                         "value":"0x1111111254eeb25477b68fb85ed929f73a960582"
                                                      },
                                                      {
                                                         "name":"amount",
                                                         "type":"uint256",
                                                         "value":"115792089237316195423570985008687907853269984665535478265940479358353193683973"
                                                      }
                                                   ]
                                                }
                                             ]
                                          },
                                          {
                                             "contract_name":"AggregationRouterV5",
                                             "function":"getReserves",
                                             "from":"0x1111111254eeb25477b68fb85ed929f73a960582",
                                             "from_balance":"1",
                                             "to":"0xa1bf0e900fb272089c9fd299ea14bfccb1d1c2c0",
                                             "input":"0x0902f1ac",
                                             "output":"0x00000000000000000000000000000000000000002205bc73afa559361534773c000000000000000000000000000000000000000000000016da5898f27ff9cab800000000000000000000000000000000000000000000000000000000661f8e6f",
                                             "value":null,
                                             "caller":"0x1111111254eeb25477b68fb85ed929f73a960582",
                                             "caller_balance":"1",
                                             "decoded_output":[
                                                {
                                                   "name":"_reserve0",
                                                   "type":"uint112",
                                                   "value":"10529424901954773869028210492"
                                                },
                                                {
                                                   "name":"_reserve1",
                                                   "type":"uint112",
                                                   "value":"421561863087125547704"
                                                },
                                                {
                                                   "name":"_blockTimestampLast",
                                                   "type":"uint32",
                                                   "value":1713344111
                                                }
                                             ]
                                          },
                                          {
                                             "contract_name":"AggregationRouterV5",
                                             "function":"swap",
                                             "from":"0x1111111254eeb25477b68fb85ed929f73a960582",
                                             "from_balance":"1",
                                             "to":"0xa1bf0e900fb272089c9fd299ea14bfccb1d1c2c0",
                                             "input":"0x022c0d9f0000000000000000000000000000000000000000000000000000000000000000000000000000000000000000000000000000000000000000011b91d66521470b0000000000000000000000001111111254eeb25477b68fb85ed929f73a96058200000000000000000000000000000000000000000000000000000000000000800000000000000000000000000000000000000000000000000000000000000000",
                                             "output":"0x",
                                             "value":"0",
                                             "caller":"0x1111111254eeb25477b68fb85ed929f73a960582",
                                             "caller_balance":"1",
                                             "decoded_input":[
                                                {
                                                   "name":"amount0Out",
                                                   "type":"uint256",
                                                   "value":"0"
                                                },
                                                {
                                                   "name":"amount1Out",
                                                   "type":"uint256",
                                                   "value":"79817768414824203"
                                                },
                                                {
                                                   "name":"to",
                                                   "type":"address",
                                                   "value":"0x1111111254eeb25477b68fb85ed929f73a960582"
                                                },
                                                {
                                                   "name":"data",
                                                   "type":"bytes",
                                                   "value":"0x"
                                                }
                                             ],
                                             "calls":[
                                                {
                                                   "contract_name":"UniswapV2Pair",
                                                   "function":"getReserves",
                                                   "from":"0xa1bf0e900fb272089c9fd299ea14bfccb1d1c2c0",
                                                   "from_balance":null,
                                                   "to":"0xa1bf0e900fb272089c9fd299ea14bfccb1d1c2c0",
                                                   "input":"0x",
                                                   "output":"0x",
                                                   "value":null,
                                                   "caller":"0x1111111254eeb25477b68fb85ed929f73a960582",
                                                   "caller_balance":"1",
                                                   "decoded_output":[
                                                      {
                                                         "name":"_reserve0",
                                                         "type":"uint112",
                                                         "value":"10529424901954773869028210492"
                                                      },
                                                      {
                                                         "name":"_reserve1",
                                                         "type":"uint112",
                                                         "value":"421561863087125547704"
                                                      },
                                                      {
                                                         "name":"_blockTimestampLast",
                                                         "type":"uint32",
                                                         "value":1713344111
                                                      }
                                                   ]
                                                },
                                                {
                                                   "contract_name":"UniswapV2Pair",
                                                   "function":"_safeTransfer",
                                                   "from":"0xa1bf0e900fb272089c9fd299ea14bfccb1d1c2c0",
                                                   "from_balance":null,
                                                   "to":"0xa1bf0e900fb272089c9fd299ea14bfccb1d1c2c0",
                                                   "input":"0x",
                                                   "output":"0x",
                                                   "value":null,
                                                   "caller":"0x1111111254eeb25477b68fb85ed929f73a960582",
                                                   "caller_balance":"1",
                                                   "decoded_input":[
                                                      {
                                                         "name":"token",
                                                         "type":"address",
                                                         "value":"0xc02aaa39b223fe8d0a0e5c4f27ead9083c756cc2"
                                                      },
                                                      {
                                                         "name":"to",
                                                         "type":"address",
                                                         "value":"0x1111111254eeb25477b68fb85ed929f73a960582"
                                                      },
                                                      {
                                                         "name":"value",
                                                         "type":"uint256",
                                                         "value":"79817768414824203"
                                                      }
                                                   ],
                                                   "calls":[
                                                      {
                                                         "contract_name":"UniswapV2Pair",
                                                         "function":"transfer",
                                                         "from":"0xa1bf0e900fb272089c9fd299ea14bfccb1d1c2c0",
                                                         "from_balance":"0",
                                                         "to":"0xc02aaa39b223fe8d0a0e5c4f27ead9083c756cc2",
                                                         "input":"0xa9059cbb0000000000000000000000001111111254eeb25477b68fb85ed929f73a960582000000000000000000000000000000000000000000000000011b91d66521470b",
                                                         "output":"0x0000000000000000000000000000000000000000000000000000000000000001",
                                                         "value":"0",
                                                         "caller":"0xa1bf0e900fb272089c9fd299ea14bfccb1d1c2c0",
                                                         "caller_balance":"0",
                                                         "decoded_input":[
                                                            {
                                                               "name":"dst",
                                                               "type":"address",
                                                               "value":"0x1111111254eeb25477b68fb85ed929f73a960582"
                                                            },
                                                            {
                                                               "name":"wad",
                                                               "type":"uint256",
                                                               "value":"79817768414824203"
                                                            }
                                                         ],
                                                         "decoded_output":[
                                                            {
                                                               "name":"",
                                                               "type":"bool",
                                                               "value":true
                                                            }
                                                         ],
                                                         "calls":[
                                                            {
                                                               "contract_name":"WETH9",
                                                               "function":"transferFrom",
                                                               "from":"0xc02aaa39b223fe8d0a0e5c4f27ead9083c756cc2",
                                                               "from_balance":null,
                                                               "to":"0xc02aaa39b223fe8d0a0e5c4f27ead9083c756cc2",
                                                               "input":"0x",
                                                               "output":"0x",
                                                               "value":null,
                                                               "caller":"0xa1bf0e900fb272089c9fd299ea14bfccb1d1c2c0",
                                                               "caller_balance":"0",
                                                               "decoded_input":[
                                                                  {
                                                                     "name":"src",
                                                                     "type":"address",
                                                                     "value":"0xa1bf0e900fb272089c9fd299ea14bfccb1d1c2c0"
                                                                  },
                                                                  {
                                                                     "name":"dst",
                                                                     "type":"address",
                                                                     "value":"0x1111111254eeb25477b68fb85ed929f73a960582"
                                                                  },
                                                                  {
                                                                     "name":"wad",
                                                                     "type":"uint256",
                                                                     "value":"79817768414824203"
                                                                  }
                                                               ],
                                                               "decoded_output":[
                                                                  {
                                                                     "name":"",
                                                                     "type":"bool",
                                                                     "value":true
                                                                  }
                                                               ]
                                                            }
                                                         ]
                                                      }
                                                   ]
                                                },
                                                {
                                                   "contract_name":"UniswapV2Pair",
                                                   "function":"balanceOf",
                                                   "from":"0xa1bf0e900fb272089c9fd299ea14bfccb1d1c2c0",
                                                   "from_balance":"0",
                                                   "to":"0x68bbed6a47194eff1cf514b50ea91895597fc91e",
                                                   "input":"0x70a08231000000000000000000000000a1bf0e900fb272089c9fd299ea14bfccb1d1c2c0",
                                                   "output":"0x0000000000000000000000000000000000000000220763f7e742f3115734773c",
                                                   "value":null,
                                                   "caller":"0xa1bf0e900fb272089c9fd299ea14bfccb1d1c2c0",
                                                   "caller_balance":"0",
                                                   "decoded_input":[
                                                      {
                                                         "name":"account",
                                                         "type":"address",
                                                         "value":"0xa1bf0e900fb272089c9fd299ea14bfccb1d1c2c0"
                                                      }
                                                   ],
                                                   "decoded_output":[
                                                      {
                                                         "name":"",
                                                         "type":"uint256",
                                                         "value":"10531424901954773869028210492"
                                                      }
                                                   ]
                                                },
                                                {
                                                   "contract_name":"UniswapV2Pair",
                                                   "function":"balanceOf",
                                                   "from":"0xa1bf0e900fb272089c9fd299ea14bfccb1d1c2c0",
                                                   "from_balance":"0",
                                                   "to":"0xc02aaa39b223fe8d0a0e5c4f27ead9083c756cc2",
                                                   "input":"0x70a08231000000000000000000000000a1bf0e900fb272089c9fd299ea14bfccb1d1c2c0",
                                                   "output":"0x000000000000000000000000000000000000000000000016d93d071c1ad883ad",
                                                   "value":null,
                                                   "caller":"0xa1bf0e900fb272089c9fd299ea14bfccb1d1c2c0",
                                                   "caller_balance":"0",
                                                   "decoded_input":[
                                                      {
                                                         "name":"",
                                                         "type":"address",
                                                         "value":"0xa1bf0e900fb272089c9fd299ea14bfccb1d1c2c0"
                                                      }
                                                   ],
                                                   "decoded_output":[
                                                      {
                                                         "name":"",
                                                         "type":"uint256",
                                                         "value":"421482045318710723501"
                                                      }
                                                   ]
                                                },
                                                {
                                                   "contract_name":"UniswapV2Pair",
                                                   "function":"mul",
                                                   "from":"0xa1bf0e900fb272089c9fd299ea14bfccb1d1c2c0",
                                                   "from_balance":null,
                                                   "to":"0xa1bf0e900fb272089c9fd299ea14bfccb1d1c2c0",
                                                   "input":"0x",
                                                   "output":"0x",
                                                   "value":null,
                                                   "caller":"0x1111111254eeb25477b68fb85ed929f73a960582",
                                                   "caller_balance":"1",
                                                   "decoded_input":[
                                                      {
                                                         "name":"x",
                                                         "type":"uint256",
                                                         "value":"2000000000000000000000000"
                                                      },
                                                      {
                                                         "name":"y",
                                                         "type":"uint256",
                                                         "value":"3"
                                                      }
                                                   ],
                                                   "decoded_output":[
                                                      {
                                                         "name":"z",
                                                         "type":"uint256",
                                                         "value":"6000000000000000000000000"
                                                      }
                                                   ]
                                                },
                                                {
                                                   "contract_name":"UniswapV2Pair",
                                                   "function":"mul",
                                                   "from":"0xa1bf0e900fb272089c9fd299ea14bfccb1d1c2c0",
                                                   "from_balance":null,
                                                   "to":"0xa1bf0e900fb272089c9fd299ea14bfccb1d1c2c0",
                                                   "input":"0x",
                                                   "output":"0x",
                                                   "value":null,
                                                   "caller":"0x1111111254eeb25477b68fb85ed929f73a960582",
                                                   "caller_balance":"1",
                                                   "decoded_input":[
                                                      {
                                                         "name":"x",
                                                         "type":"uint256",
                                                         "value":"10531424901954773869028210492"
                                                      },
                                                      {
                                                         "name":"y",
                                                         "type":"uint256",
                                                         "value":"1000"
                                                      }
                                                   ],
                                                   "decoded_output":[
                                                      {
                                                         "name":"z",
                                                         "type":"uint256",
                                                         "value":"10531424901954773869028210492000"
                                                      }
                                                   ]
                                                },
                                                {
                                                   "contract_name":"UniswapV2Pair",
                                                   "function":"sub",
                                                   "from":"0xa1bf0e900fb272089c9fd299ea14bfccb1d1c2c0",
                                                   "from_balance":null,
                                                   "to":"0xa1bf0e900fb272089c9fd299ea14bfccb1d1c2c0",
                                                   "input":"0x",
                                                   "output":"0x",
                                                   "value":null,
                                                   "caller":"0x1111111254eeb25477b68fb85ed929f73a960582",
                                                   "caller_balance":"1",
                                                   "decoded_input":[
                                                      {
                                                         "name":"x",
                                                         "type":"uint256",
                                                         "value":"10531424901954773869028210492000"
                                                      },
                                                      {
                                                         "name":"y",
                                                         "type":"uint256",
                                                         "value":"6000000000000000000000000"
                                                      }
                                                   ],
                                                   "decoded_output":[
                                                      {
                                                         "name":"z",
                                                         "type":"uint256",
                                                         "value":"10531418901954773869028210492000"
                                                      }
                                                   ]
                                                },
                                                {
                                                   "contract_name":"UniswapV2Pair",
                                                   "function":"mul",
                                                   "from":"0xa1bf0e900fb272089c9fd299ea14bfccb1d1c2c0",
                                                   "from_balance":null,
                                                   "to":"0xa1bf0e900fb272089c9fd299ea14bfccb1d1c2c0",
                                                   "input":"0x",
                                                   "output":"0x",
                                                   "value":null,
                                                   "caller":"0x1111111254eeb25477b68fb85ed929f73a960582",
                                                   "caller_balance":"1",
                                                   "decoded_input":[
                                                      {
                                                         "name":"x",
                                                         "type":"uint256",
                                                         "value":"0"
                                                      },
                                                      {
                                                         "name":"y",
                                                         "type":"uint256",
                                                         "value":"3"
                                                      }
                                                   ],
                                                   "decoded_output":[
                                                      {
                                                         "name":"z",
                                                         "type":"uint256",
                                                         "value":"0"
                                                      }
                                                   ]
                                                },
                                                {
                                                   "contract_name":"UniswapV2Pair",
                                                   "function":"mul",
                                                   "from":"0xa1bf0e900fb272089c9fd299ea14bfccb1d1c2c0",
                                                   "from_balance":null,
                                                   "to":"0xa1bf0e900fb272089c9fd299ea14bfccb1d1c2c0",
                                                   "input":"0x",
                                                   "output":"0x",
                                                   "value":null,
                                                   "caller":"0x1111111254eeb25477b68fb85ed929f73a960582",
                                                   "caller_balance":"1",
                                                   "decoded_input":[
                                                      {
                                                         "name":"x",
                                                         "type":"uint256",
                                                         "value":"421482045318710723501"
                                                      },
                                                      {
                                                         "name":"y",
                                                         "type":"uint256",
                                                         "value":"1000"
                                                      }
                                                   ],
                                                   "decoded_output":[
                                                      {
                                                         "name":"z",
                                                         "type":"uint256",
                                                         "value":"421482045318710723501000"
                                                      }
                                                   ]
                                                },
                                                {
                                                   "contract_name":"UniswapV2Pair",
                                                   "function":"sub",
                                                   "from":"0xa1bf0e900fb272089c9fd299ea14bfccb1d1c2c0",
                                                   "from_balance":null,
                                                   "to":"0xa1bf0e900fb272089c9fd299ea14bfccb1d1c2c0",
                                                   "input":"0x",
                                                   "output":"0x",
                                                   "value":null,
                                                   "caller":"0x1111111254eeb25477b68fb85ed929f73a960582",
                                                   "caller_balance":"1",
                                                   "decoded_input":[
                                                      {
                                                         "name":"x",
                                                         "type":"uint256",
                                                         "value":"421482045318710723501000"
                                                      },
                                                      {
                                                         "name":"y",
                                                         "type":"uint256",
                                                         "value":"0"
                                                      }
                                                   ],
                                                   "decoded_output":[
                                                      {
                                                         "name":"z",
                                                         "type":"uint256",
                                                         "value":"421482045318710723501000"
                                                      }
                                                   ]
                                                },
                                                {
                                                   "contract_name":"UniswapV2Pair",
                                                   "function":"mul",
                                                   "from":"0xa1bf0e900fb272089c9fd299ea14bfccb1d1c2c0",
                                                   "from_balance":null,
                                                   "to":"0xa1bf0e900fb272089c9fd299ea14bfccb1d1c2c0",
                                                   "input":"0x",
                                                   "output":"0x",
                                                   "value":null,
                                                   "caller":"0x1111111254eeb25477b68fb85ed929f73a960582",
                                                   "caller_balance":"1",
                                                   "decoded_input":[
                                                      {
                                                         "name":"x",
                                                         "type":"uint256",
                                                         "value":"10529424901954773869028210492"
                                                      },
                                                      {
                                                         "name":"y",
                                                         "type":"uint256",
                                                         "value":"421561863087125547704"
                                                      }
                                                   ],
                                                   "decoded_output":[
                                                      {
                                                         "name":"z",
                                                         "type":"uint256",
                                                         "value":"4438803978904028725562196588140216597342499310368"
                                                      }
                                                   ]
                                                },
                                                {
                                                   "contract_name":"UniswapV2Pair",
                                                   "function":"mul",
                                                   "from":"0xa1bf0e900fb272089c9fd299ea14bfccb1d1c2c0",
                                                   "from_balance":null,
                                                   "to":"0xa1bf0e900fb272089c9fd299ea14bfccb1d1c2c0",
                                                   "input":"0x",
                                                   "output":"0x",
                                                   "value":null,
                                                   "caller":"0x1111111254eeb25477b68fb85ed929f73a960582",
                                                   "caller_balance":"1",
                                                   "decoded_input":[
                                                      {
                                                         "name":"x",
                                                         "type":"uint256",
                                                         "value":"4438803978904028725562196588140216597342499310368"
                                                      },
                                                      {
                                                         "name":"y",
                                                         "type":"uint256",
                                                         "value":"1000000"
                                                      }
                                                   ],
                                                   "decoded_output":[
                                                      {
                                                         "name":"z",
                                                         "type":"uint256",
                                                         "value":"4438803978904028725562196588140216597342499310368000000"
                                                      }
                                                   ]
                                                },
                                                {
                                                   "contract_name":"UniswapV2Pair",
                                                   "function":"mul",
                                                   "from":"0xa1bf0e900fb272089c9fd299ea14bfccb1d1c2c0",
                                                   "from_balance":null,
                                                   "to":"0xa1bf0e900fb272089c9fd299ea14bfccb1d1c2c0",
                                                   "input":"0x",
                                                   "output":"0x",
                                                   "value":null,
                                                   "caller":"0x1111111254eeb25477b68fb85ed929f73a960582",
                                                   "caller_balance":"1",
                                                   "decoded_input":[
                                                      {
                                                         "name":"x",
                                                         "type":"uint256",
                                                         "value":"10531418901954773869028210492000"
                                                      },
                                                      {
                                                         "name":"y",
                                                         "type":"uint256",
                                                         "value":"421482045318710723501000"
                                                      }
                                                   ],
                                                   "decoded_output":[
                                                      {
                                                         "name":"z",
                                                         "type":"uint256",
                                                         "value":"4438803978904028725564685283837446121684639172492000000"
                                                      }
                                                   ]
                                                },
                                                {
                                                   "contract_name":"UniswapV2Pair",
                                                   "function":"_update",
                                                   "from":"0xa1bf0e900fb272089c9fd299ea14bfccb1d1c2c0",
                                                   "from_balance":null,
                                                   "to":"0xa1bf0e900fb272089c9fd299ea14bfccb1d1c2c0",
                                                   "input":"0x",
                                                   "output":"0x",
                                                   "value":null,
                                                   "caller":"0x1111111254eeb25477b68fb85ed929f73a960582",
                                                   "caller_balance":"1",
                                                   "decoded_input":[
                                                      {
                                                         "name":"balance0",
                                                         "type":"uint256",
                                                         "value":"10531424901954773869028210492"
                                                      },
                                                      {
                                                         "name":"balance1",
                                                         "type":"uint256",
                                                         "value":"421482045318710723501"
                                                      },
                                                      {
                                                         "name":"_reserve0",
                                                         "type":"uint112",
                                                         "value":"10529424901954773869028210492"
                                                      },
                                                      {
                                                         "name":"_reserve1",
                                                         "type":"uint112",
                                                         "value":"421561863087125547704"
                                                      }
                                                   ],
                                                   "calls":[
                                                      {
                                                         "contract_name":"UniswapV2Pair",
                                                         "function":"encode",
                                                         "from":"0xa1bf0e900fb272089c9fd299ea14bfccb1d1c2c0",
                                                         "from_balance":null,
                                                         "to":"0xa1bf0e900fb272089c9fd299ea14bfccb1d1c2c0",
                                                         "input":"0x",
                                                         "output":"0x",
                                                         "value":null,
                                                         "caller":"0x1111111254eeb25477b68fb85ed929f73a960582",
                                                         "caller_balance":"1",
                                                         "decoded_input":[
                                                            {
                                                               "name":"y",
                                                               "type":"uint112",
                                                               "value":"421561863087125547704"
                                                            }
                                                         ],
                                                         "decoded_output":[
                                                            {
                                                               "name":"z",
                                                               "type":"uint224",
                                                               "value":"2188874337385371093108793448955635956149110363163459584"
                                                            }
                                                         ]
                                                      },
                                                      {
                                                         "contract_name":"UniswapV2Pair",
                                                         "function":"uqdiv",
                                                         "from":"0xa1bf0e900fb272089c9fd299ea14bfccb1d1c2c0",
                                                         "from_balance":null,
                                                         "to":"0xa1bf0e900fb272089c9fd299ea14bfccb1d1c2c0",
                                                         "input":"0x",
                                                         "output":"0x",
                                                         "value":null,
                                                         "caller":"0x1111111254eeb25477b68fb85ed929f73a960582",
                                                         "caller_balance":"1",
                                                         "decoded_input":[
                                                            {
                                                               "name":"x",
                                                               "type":"uint224",
                                                               "value":"2188874337385371093108793448955635956149110363163459584"
                                                            },
                                                            {
                                                               "name":"y",
                                                               "type":"uint112",
                                                               "value":"10529424901954773869028210492"
                                                            }
                                                         ],
                                                         "decoded_output":[
                                                            {
                                                               "name":"z",
                                                               "type":"uint224",
                                                               "value":"207881660942280850917949040"
                                                            }
                                                         ]
                                                      },
                                                      {
                                                         "contract_name":"UniswapV2Pair",
                                                         "function":"encode",
                                                         "from":"0xa1bf0e900fb272089c9fd299ea14bfccb1d1c2c0",
                                                         "from_balance":null,
                                                         "to":"0xa1bf0e900fb272089c9fd299ea14bfccb1d1c2c0",
                                                         "input":"0x",
                                                         "output":"0x",
                                                         "value":null,
                                                         "caller":"0x1111111254eeb25477b68fb85ed929f73a960582",
                                                         "caller_balance":"1",
                                                         "decoded_input":[
                                                            {
                                                               "name":"y",
                                                               "type":"uint112",
                                                               "value":"10529424901954773869028210492"
                                                            }
                                                         ],
                                                         "decoded_output":[
                                                            {
                                                               "name":"z",
                                                               "type":"uint224",
                                                               "value":"54671899840598157768358106381908651383286303348922916884447232"
                                                            }
                                                         ]
                                                      },
                                                      {
                                                         "contract_name":"UniswapV2Pair",
                                                         "function":"uqdiv",
                                                         "from":"0xa1bf0e900fb272089c9fd299ea14bfccb1d1c2c0",
                                                         "from_balance":null,
                                                         "to":"0xa1bf0e900fb272089c9fd299ea14bfccb1d1c2c0",
                                                         "input":"0x",
                                                         "output":"0x",
                                                         "value":null,
                                                         "caller":"0x1111111254eeb25477b68fb85ed929f73a960582",
                                                         "caller_balance":"1",
                                                         "decoded_input":[
                                                            {
                                                               "name":"x",
                                                               "type":"uint224",
                                                               "value":"54671899840598157768358106381908651383286303348922916884447232"
                                                            },
                                                            {
                                                               "name":"y",
                                                               "type":"uint112",
                                                               "value":"421561863087125547704"
                                                            }
                                                         ],
                                                         "decoded_output":[
                                                            {
                                                               "name":"z",
                                                               "type":"uint224",
                                                               "value":"129688913129456732144714219411802918302588"
                                                            }
                                                         ]
                                                      }
                                                   ]
                                                }
                                             ]
                                          },
                                          {
                                             "contract_name":"AggregationRouterV5",
                                             "function":"withdraw",
                                             "from":"0x1111111254eeb25477b68fb85ed929f73a960582",
                                             "from_balance":"1",
                                             "to":"0xc02aaa39b223fe8d0a0e5c4f27ead9083c756cc2",
                                             "input":"0x2e1a7d4d000000000000000000000000000000000000000000000000011b91d66521470b",
                                             "output":"0x",
                                             "value":"0",
                                             "caller":"0x1111111254eeb25477b68fb85ed929f73a960582",
                                             "caller_balance":"1",
                                             "decoded_input":[
                                                {
                                                   "name":"wad",
                                                   "type":"uint256",
                                                   "value":"79817768414824203"
                                                }
                                             ],
                                             "calls":[
                                                {
                                                   "contract_name":"WETH9",
                                                   "function":"fallback",
                                                   "from":"0xc02aaa39b223fe8d0a0e5c4f27ead9083c756cc2",
                                                   "from_balance":"3060678233969734174743466",
                                                   "to":"0x1111111254eeb25477b68fb85ed929f73a960582",
                                                   "input":"0x",
                                                   "output":"0x",
                                                   "value":"79817768414824203",
                                                   "caller":"0xc02aaa39b223fe8d0a0e5c4f27ead9083c756cc2",
                                                   "caller_balance":"3060678154151965759919263",
                                                   "calls":[
                                                      {
                                                         "contract_name":"AggregationRouterV5",
                                                         "function":"_receive",
                                                         "from":"0x1111111254eeb25477b68fb85ed929f73a960582",
                                                         "from_balance":null,
                                                         "to":"0x1111111254eeb25477b68fb85ed929f73a960582",
                                                         "input":"0x",
                                                         "output":"0x",
                                                         "value":null,
                                                         "caller":"0xc02aaa39b223fe8d0a0e5c4f27ead9083c756cc2",
                                                         "caller_balance":"3060678154151965759919263"
                                                      }
                                                   ]
                                                }
                                             ]
                                          },
                                          {
                                             "contract_name":"AggregationRouterV5",
                                             "function":"",
                                             "from":"0x1111111254eeb25477b68fb85ed929f73a960582",
                                             "from_balance":"79817768414824204",
                                             "to":"0x74de5d4fcbf63e00296fd95d33236b9794016631",
                                             "input":"0x",
                                             "output":"0x",
                                             "value":"79817768414824203"
                                          }
                                       ]
                                    }
                                 ]
                              },
                              {
                                 "contract_name":"",
                                 "function":"fallback",
                                 "from":"0x74de5d4fcbf63e00296fd95d33236b9794016631",
                                 "from_balance":"79817768414824203",
                                 "to":"0xf326e4de8f66a0bdc0970b79e0924e33c79f1915",
                                 "input":"0x",
                                 "output":"0x",
                                 "value":"698405473629712",
                                 "caller":"0x74de5d4fcbf63e00296fd95d33236b9794016631",
                                 "caller_balance":"79119362941194491",
                                 "calls":[
                                    {
                                       "contract_name":"Proxy",
                                       "function":"fallback",
                                       "from":"0xf326e4de8f66a0bdc0970b79e0924e33c79f1915",
                                       "from_balance":"3309702344716399585362",
                                       "to":"0xd9db270c1b5e3bd161e8c8503c55ceabee709552",
                                       "input":"0x",
                                       "output":"0x",
                                       "value":null,
                                       "caller":"0x74de5d4fcbf63e00296fd95d33236b9794016631",
                                       "caller_balance":"79119362941194491"
                                    }
                                 ]
                              },
                              {
                                 "contract_name":"",
                                 "function":"balanceOf",
                                 "from":"0x74de5d4fcbf63e00296fd95d33236b9794016631",
                                 "from_balance":"79119362941194491",
                                 "to":"0x68bbed6a47194eff1cf514b50ea91895597fc91e",
                                 "input":"0x70a0823100000000000000000000000074de5d4fcbf63e00296fd95d33236b9794016631",
                                 "output":"0x0000000000000000000000000000000000000000000000000000000000000000",
                                 "value":null,
                                 "caller":"0x74de5d4fcbf63e00296fd95d33236b9794016631",
                                 "caller_balance":"79119362941194491",
                                 "decoded_input":[
                                    {
                                       "name":"account",
                                       "type":"address",
                                       "value":"0x74de5d4fcbf63e00296fd95d33236b9794016631"
                                    }
                                 ],
                                 "decoded_output":[
                                    {
                                       "name":"",
                                       "type":"uint256",
                                       "value":"0"
                                    }
                                 ]
                              },
                              {
                                 "contract_name":"",
                                 "function":"",
                                 "from":"0x74de5d4fcbf63e00296fd95d33236b9794016631",
                                 "from_balance":"79119362941194491",
                                 "to":"0xbd1b84f69b92d4e31dfbdb7f6b77075a39b6ee6b",
                                 "input":"0x",
                                 "output":"0x",
                                 "value":"79119362941194491"
                              }
                           ]
                        }
                     ]
                  }
               ]
            }
         ]
      }
   ],
   "asset_changes":[
      {
         "type":"Transfer",
         "from":"0xbd1b84f69b92d4e31dfbdb7f6b77075a39b6ee6b",
         "to":"0x74de5d4fcbf63e00296fd95d33236b9794016631",
         "amount":"2000000",
         "dollar_value":"202.5199937634170055389404",
         "token_info":{
            "standard":"ERC20",
            "type":"Fungible",
            "symbol":"andy",
            "name":"ANDY ETH",
            "decimals":18,
            "contract_address":"0x68bbed6a47194eff1cf514b50ea91895597fc91e"
         }
      },
      {
         "type":"Transfer",
         "from":"0x74de5d4fcbf63e00296fd95d33236b9794016631",
         "to":"0xa1bf0e900fb272089c9fd299ea14bfccb1d1c2c0",
         "amount":"2000000",
         "dollar_value":"202.5199937634170055389404",
         "token_info":{
            "standard":"ERC20",
            "type":"Fungible",
            "symbol":"andy",
            "name":"ANDY ETH",
            "decimals":18,
            "contract_address":"0x68bbed6a47194eff1cf514b50ea91895597fc91e"
         }
      },
      {
         "type":"Transfer",
         "from":"0xa1bf0e900fb272089c9fd299ea14bfccb1d1c2c0",
         "to":"0x1111111254eeb25477b68fb85ed929f73a960582",
         "amount":"0.079817768414824203",
         "dollar_value":"244.88331036814428357",
         "token_info":{
            "standard":"ERC20",
            "type":"Fungible",
            "symbol":"weth",
            "name":"WETH",
            "decimals":18,
            "contract_address":"0xc02aaa39b223fe8d0a0e5c4f27ead9083c756cc2"
         }
      },
      {
         "type":"Burn",
         "from":"0x1111111254eeb25477b68fb85ed929f73a960582",
         "to":"",
         "amount":"0.079817768414824203",
         "dollar_value":"244.88331036814428357",
         "token_info":{
            "standard":"ERC20",
            "type":"Fungible",
            "symbol":"weth",
            "name":"WETH",
            "decimals":18,
            "contract_address":"0xc02aaa39b223fe8d0a0e5c4f27ead9083c756cc2"
         }
      },
      {
         "type":"Transfer",
         "from":"0xc02aaa39b223fe8d0a0e5c4f27ead9083c756cc2",
         "to":"0x1111111254eeb25477b68fb85ed929f73a960582",
         "amount":"0.079817768414824203",
         "dollar_value":"245.0573076469958376",
         "token_info":{
            "standard":"NativeCurrency",
            "type":"Native",
            "symbol":"eth",
            "name":"Ethereum",
            "decimals":18,
            "contract_address":""
         }
      },
      {
         "type":"Transfer",
         "from":"0x1111111254eeb25477b68fb85ed929f73a960582",
         "to":"0x74de5d4fcbf63e00296fd95d33236b9794016631",
         "amount":"0.079817768414824203",
         "dollar_value":"245.0573076469958376",
         "token_info":{
            "standard":"NativeCurrency",
            "type":"Native",
            "symbol":"eth",
            "name":"Ethereum",
            "decimals":18,
            "contract_address":""
         }
      },
      {
         "type":"Transfer",
         "from":"0x74de5d4fcbf63e00296fd95d33236b9794016631",
         "to":"0xf326e4de8f66a0bdc0970b79e0924e33c79f1915",
         "amount":"0.000698405473629712",
         "dollar_value":"2.144251441911214266",
         "token_info":{
            "standard":"NativeCurrency",
            "type":"Native",
            "symbol":"eth",
            "name":"Ethereum",
            "decimals":18,
            "contract_address":""
         }
      },
      {
         "type":"Transfer",
         "from":"0x74de5d4fcbf63e00296fd95d33236b9794016631",
         "to":"0xbd1b84f69b92d4e31dfbdb7f6b77075a39b6ee6b",
         "amount":"0.079119362941194491",
         "dollar_value":"242.91305620508462333",
         "token_info":{
            "standard":"NativeCurrency",
            "type":"Native",
            "symbol":"eth",
            "name":"Ethereum",
            "decimals":18,
            "contract_address":""
         }
      }
   ],
   "hash":"0x238f69c448ec204ca4156e6f4c76b9d474e10d2aa2993164b52da2044a24af27",
   "status":true
}